{
  "contracts/KYCVerifier.sol": {
    "KYCVerifier": {
      "abi": [
        {
          "inputs": [
            {
              "internalType": "uint256[8]",
              "name": "proof",
              "type": "uint256[8]"
            },
            {
              "internalType": "uint256",
              "name": "identityHash",
              "type": "uint256"
            },
            {
              "internalType": "uint256",
              "name": "ageOver18",
              "type": "uint256"
            },
            {
              "internalType": "uint256",
              "name": "countryCode",
              "type": "uint256"
            }
          ],
          "name": "verifyKYCProof",
          "outputs": [
            {
              "internalType": "bool",
              "name": "",
              "type": "bool"
            }
          ],
          "stateMutability": "view",
          "type": "function"
        },
        {
          "inputs": [
            {
              "internalType": "uint256[2]",
              "name": "a",
              "type": "uint256[2]"
            },
            {
              "internalType": "uint256[2][2]",
              "name": "b",
              "type": "uint256[2][2]"
            },
            {
              "internalType": "uint256[2]",
              "name": "c",
              "type": "uint256[2]"
            },
            {
              "internalType": "uint256[]",
              "name": "input",
              "type": "uint256[]"
            }
          ],
          "name": "verifyProof",
          "outputs": [
            {
              "internalType": "bool",
              "name": "",
              "type": "bool"
            }
          ],
          "stateMutability": "view",
          "type": "function"
        }
      ],
      "evm": {
        "bytecode": {
          "linkReferences": {},
          "object": "608060405234801561001057600080fd5b506107eb806100206000396000f3fe608060405234801561001057600080fd5b50600436106100365760003560e01c80639c246cab1461003b578063c32e370e14610062575b600080fd5b61004e6100493660046104fa565b610075565b604051901515815260200160405180910390f35b61004e610070366004610668565b610207565b604080516003808252608082019092526000918291906020820160608036833701905050905084816000815181106100af576100af610722565b60200260200101818152505083816001815181106100cf576100cf610722565b60200260200101818152505082816002815181106100ef576100ef610722565b602002602001018181525050600060405180604001604052808860006008811061011b5761011b610722565b602002013581526020018860016008811061013857610138610722565b602002013590526040805160808101825289820135918101918252919250600091908190606082018b60036020020135815250815260200160405180604001604052808b60046008811061018e5761018e610722565b602002013581526020018b6005600881106101ab576101ab610722565b60200201359052905260408051808201909152909150600090808a6006602002013581526020018a6007600881106101e5576101e5610722565b6020020135905290506101fa83838387610207565b9998505050505050505050565b600081516001610217919061074e565b6002146102625760405162461bcd60e51b8152602060048201526014602482015273092dcecc2d8d2c840d2dce0eae840d8cadccee8d60631b60448201526064015b60405180910390fd5b61026a61049f565b600181526002602082015260005b835181101561031b577f30644e72e131a029b85045b68181585d97816a916871ca8d3c208c16d87cfd478482815181106102b4576102b4610722565b6020026020010151106103095760405162461bcd60e51b815260206004820152601860248201527f496e7075742065786365656473206669656c642073697a6500000000000000006044820152606401610259565b8061031381610767565b915050610278565b5061032886868684610332565b9695505050505050565b600061033c61049f565b855181526020860151610370907f30644e72e131a029b85045b68181585d97816a916871ca8d3c208c16d87cfd4790610780565b61039a907f30644e72e131a029b85045b68181585d97816a916871ca8d3c208c16d87cfd476107a2565b60208201526103a76104bd565b815181526020808301518282015286515160408301528651810151606083015286810180515160808401525181015160a0830152600160c08301819052600260e084018190526101008401829052610120840181905260036101408501819052600461016086018190528851610180870152888501516101a08701526101c086018490526101e08601839052610200860182905261022086018190528951610240870152938901516102608601526102808501929092526102a08401526102c08301526102e08201526104786104dc565b60006020826103008560085afa90508080156101fa57505051600114979650505050505050565b60405180604001604052806002906020820280368337509192915050565b6040518061030001604052806018906020820280368337509192915050565b60405180602001604052806001906020820280368337509192915050565b600080600080610160858703121561051157600080fd5b61010085018681111561052357600080fd5b94969435955050506101208501359261014086013592509050565b634e487b7160e01b600052604160045260246000fd5b6040805190810167ffffffffffffffff811182821017156105775761057761053e565b60405290565b600082601f83011261058e57600080fd5b610596610554565b8060408401858111156105a857600080fd5b845b818110156105c25780358452602093840193016105aa565b509095945050505050565b600082601f8301126105de57600080fd5b8135602067ffffffffffffffff808311156105fb576105fb61053e565b8260051b604051601f19603f830116810181811084821117156106205761062061053e565b60405293845285810183019383810192508785111561063e57600080fd5b83870191505b8482101561065d57813583529183019190830190610644565b979650505050505050565b600080600080610120858703121561067f57600080fd5b610689868661057d565b9350604086605f87011261069c57600080fd5b6106a4610554565b8060c08801898111156106b657600080fd5b8389015b818110156106db576106cc8b8261057d565b845260209093019284016106ba565b508196506106e98a8261057d565b95505050505061010085013567ffffffffffffffff81111561070a57600080fd5b610716878288016105cd565b91505092959194509250565b634e487b7160e01b600052603260045260246000fd5b634e487b7160e01b600052601160045260246000fd5b8082018082111561076157610761610738565b92915050565b60006001820161077957610779610738565b5060010190565b60008261079d57634e487b7160e01b600052601260045260246000fd5b500690565b818103818111156107615761076161073856fea26469706673582212203daa5d0ca1f6911a5b431ff43e6ad45fa9668f060b93698e3ac1bab7b44aeaf464736f6c63430008140033",
          "opcodes": "PUSH1 0x80 PUSH1 0x40 MSTORE CALLVALUE DUP1 ISZERO PUSH2 0x10 JUMPI PUSH1 0x0 DUP1 REVERT JUMPDEST POP PUSH2 0x7EB DUP1 PUSH2 0x20 PUSH1 0x0 CODECOPY PUSH1 0x0 RETURN INVALID PUSH1 0x80 PUSH1 0x40 MSTORE CALLVALUE DUP1 ISZERO PUSH2 0x10 JUMPI PUSH1 0x0 DUP1 REVERT JUMPDEST POP PUSH1 0x4 CALLDATASIZE LT PUSH2 0x36 JUMPI PUSH1 0x0 CALLDATALOAD PUSH1 0xE0 SHR DUP1 PUSH4 0x9C246CAB EQ PUSH2 0x3B JUMPI DUP1 PUSH4 0xC32E370E EQ PUSH2 0x62 JUMPI JUMPDEST PUSH1 0x0 DUP1 REVERT JUMPDEST PUSH2 0x4E PUSH2 0x49 CALLDATASIZE PUSH1 0x4 PUSH2 0x4FA JUMP JUMPDEST PUSH2 0x75 JUMP JUMPDEST PUSH1 0x40 MLOAD SWAP1 ISZERO ISZERO DUP2 MSTORE PUSH1 0x20 ADD PUSH1 0x40 MLOAD DUP1 SWAP2 SUB SWAP1 RETURN JUMPDEST PUSH2 0x4E PUSH2 0x70 CALLDATASIZE PUSH1 0x4 PUSH2 0x668 JUMP JUMPDEST PUSH2 0x207 JUMP JUMPDEST PUSH1 0x40 DUP1 MLOAD PUSH1 0x3 DUP1 DUP3 MSTORE PUSH1 0x80 DUP3 ADD SWAP1 SWAP3 MSTORE PUSH1 0x0 SWAP2 DUP3 SWAP2 SWAP1 PUSH1 0x20 DUP3 ADD PUSH1 0x60 DUP1 CALLDATASIZE DUP4 CALLDATACOPY ADD SWAP1 POP POP SWAP1 POP DUP5 DUP2 PUSH1 0x0 DUP2 MLOAD DUP2 LT PUSH2 0xAF JUMPI PUSH2 0xAF PUSH2 0x722 JUMP JUMPDEST PUSH1 0x20 MUL PUSH1 0x20 ADD ADD DUP2 DUP2 MSTORE POP POP DUP4 DUP2 PUSH1 0x1 DUP2 MLOAD DUP2 LT PUSH2 0xCF JUMPI PUSH2 0xCF PUSH2 0x722 JUMP JUMPDEST PUSH1 0x20 MUL PUSH1 0x20 ADD ADD DUP2 DUP2 MSTORE POP POP DUP3 DUP2 PUSH1 0x2 DUP2 MLOAD DUP2 LT PUSH2 0xEF JUMPI PUSH2 0xEF PUSH2 0x722 JUMP JUMPDEST PUSH1 0x20 MUL PUSH1 0x20 ADD ADD DUP2 DUP2 MSTORE POP POP PUSH1 0x0 PUSH1 0x40 MLOAD DUP1 PUSH1 0x40 ADD PUSH1 0x40 MSTORE DUP1 DUP9 PUSH1 0x0 PUSH1 0x8 DUP2 LT PUSH2 0x11B JUMPI PUSH2 0x11B PUSH2 0x722 JUMP JUMPDEST PUSH1 0x20 MUL ADD CALLDATALOAD DUP2 MSTORE PUSH1 0x20 ADD DUP9 PUSH1 0x1 PUSH1 0x8 DUP2 LT PUSH2 0x138 JUMPI PUSH2 0x138 PUSH2 0x722 JUMP JUMPDEST PUSH1 0x20 MUL ADD CALLDATALOAD SWAP1 MSTORE PUSH1 0x40 DUP1 MLOAD PUSH1 0x80 DUP2 ADD DUP3 MSTORE DUP10 DUP3 ADD CALLDATALOAD SWAP2 DUP2 ADD SWAP2 DUP3 MSTORE SWAP2 SWAP3 POP PUSH1 0x0 SWAP2 SWAP1 DUP2 SWAP1 PUSH1 0x60 DUP3 ADD DUP12 PUSH1 0x3 PUSH1 0x20 MUL ADD CALLDATALOAD DUP2 MSTORE POP DUP2 MSTORE PUSH1 0x20 ADD PUSH1 0x40 MLOAD DUP1 PUSH1 0x40 ADD PUSH1 0x40 MSTORE DUP1 DUP12 PUSH1 0x4 PUSH1 0x8 DUP2 LT PUSH2 0x18E JUMPI PUSH2 0x18E PUSH2 0x722 JUMP JUMPDEST PUSH1 0x20 MUL ADD CALLDATALOAD DUP2 MSTORE PUSH1 0x20 ADD DUP12 PUSH1 0x5 PUSH1 0x8 DUP2 LT PUSH2 0x1AB JUMPI PUSH2 0x1AB PUSH2 0x722 JUMP JUMPDEST PUSH1 0x20 MUL ADD CALLDATALOAD SWAP1 MSTORE SWAP1 MSTORE PUSH1 0x40 DUP1 MLOAD DUP1 DUP3 ADD SWAP1 SWAP2 MSTORE SWAP1 SWAP2 POP PUSH1 0x0 SWAP1 DUP1 DUP11 PUSH1 0x6 PUSH1 0x20 MUL ADD CALLDATALOAD DUP2 MSTORE PUSH1 0x20 ADD DUP11 PUSH1 0x7 PUSH1 0x8 DUP2 LT PUSH2 0x1E5 JUMPI PUSH2 0x1E5 PUSH2 0x722 JUMP JUMPDEST PUSH1 0x20 MUL ADD CALLDATALOAD SWAP1 MSTORE SWAP1 POP PUSH2 0x1FA DUP4 DUP4 DUP4 DUP8 PUSH2 0x207 JUMP JUMPDEST SWAP10 SWAP9 POP POP POP POP POP POP POP POP POP JUMP JUMPDEST PUSH1 0x0 DUP2 MLOAD PUSH1 0x1 PUSH2 0x217 SWAP2 SWAP1 PUSH2 0x74E JUMP JUMPDEST PUSH1 0x2 EQ PUSH2 0x262 JUMPI PUSH1 0x40 MLOAD PUSH3 0x461BCD PUSH1 0xE5 SHL DUP2 MSTORE PUSH1 0x20 PUSH1 0x4 DUP3 ADD MSTORE PUSH1 0x14 PUSH1 0x24 DUP3 ADD MSTORE PUSH20 0x92DCECC2D8D2C840D2DCE0EAE840D8CADCCEE8D PUSH1 0x63 SHL PUSH1 0x44 DUP3 ADD MSTORE PUSH1 0x64 ADD JUMPDEST PUSH1 0x40 MLOAD DUP1 SWAP2 SUB SWAP1 REVERT JUMPDEST PUSH2 0x26A PUSH2 0x49F JUMP JUMPDEST PUSH1 0x1 DUP2 MSTORE PUSH1 0x2 PUSH1 0x20 DUP3 ADD MSTORE PUSH1 0x0 JUMPDEST DUP4 MLOAD DUP2 LT ISZERO PUSH2 0x31B JUMPI PUSH32 0x30644E72E131A029B85045B68181585D97816A916871CA8D3C208C16D87CFD47 DUP5 DUP3 DUP2 MLOAD DUP2 LT PUSH2 0x2B4 JUMPI PUSH2 0x2B4 PUSH2 0x722 JUMP JUMPDEST PUSH1 0x20 MUL PUSH1 0x20 ADD ADD MLOAD LT PUSH2 0x309 JUMPI PUSH1 0x40 MLOAD PUSH3 0x461BCD PUSH1 0xE5 SHL DUP2 MSTORE PUSH1 0x20 PUSH1 0x4 DUP3 ADD MSTORE PUSH1 0x18 PUSH1 0x24 DUP3 ADD MSTORE PUSH32 0x496E7075742065786365656473206669656C642073697A650000000000000000 PUSH1 0x44 DUP3 ADD MSTORE PUSH1 0x64 ADD PUSH2 0x259 JUMP JUMPDEST DUP1 PUSH2 0x313 DUP2 PUSH2 0x767 JUMP JUMPDEST SWAP2 POP POP PUSH2 0x278 JUMP JUMPDEST POP PUSH2 0x328 DUP7 DUP7 DUP7 DUP5 PUSH2 0x332 JUMP JUMPDEST SWAP7 SWAP6 POP POP POP POP POP POP JUMP JUMPDEST PUSH1 0x0 PUSH2 0x33C PUSH2 0x49F JUMP JUMPDEST DUP6 MLOAD DUP2 MSTORE PUSH1 0x20 DUP7 ADD MLOAD PUSH2 0x370 SWAP1 PUSH32 0x30644E72E131A029B85045B68181585D97816A916871CA8D3C208C16D87CFD47 SWAP1 PUSH2 0x780 JUMP JUMPDEST PUSH2 0x39A SWAP1 PUSH32 0x30644E72E131A029B85045B68181585D97816A916871CA8D3C208C16D87CFD47 PUSH2 0x7A2 JUMP JUMPDEST PUSH1 0x20 DUP3 ADD MSTORE PUSH2 0x3A7 PUSH2 0x4BD JUMP JUMPDEST DUP2 MLOAD DUP2 MSTORE PUSH1 0x20 DUP1 DUP4 ADD MLOAD DUP3 DUP3 ADD MSTORE DUP7 MLOAD MLOAD PUSH1 0x40 DUP4 ADD MSTORE DUP7 MLOAD DUP2 ADD MLOAD PUSH1 0x60 DUP4 ADD MSTORE DUP7 DUP2 ADD DUP1 MLOAD MLOAD PUSH1 0x80 DUP5 ADD MSTORE MLOAD DUP2 ADD MLOAD PUSH1 0xA0 DUP4 ADD MSTORE PUSH1 0x1 PUSH1 0xC0 DUP4 ADD DUP2 SWAP1 MSTORE PUSH1 0x2 PUSH1 0xE0 DUP5 ADD DUP2 SWAP1 MSTORE PUSH2 0x100 DUP5 ADD DUP3 SWAP1 MSTORE PUSH2 0x120 DUP5 ADD DUP2 SWAP1 MSTORE PUSH1 0x3 PUSH2 0x140 DUP6 ADD DUP2 SWAP1 MSTORE PUSH1 0x4 PUSH2 0x160 DUP7 ADD DUP2 SWAP1 MSTORE DUP9 MLOAD PUSH2 0x180 DUP8 ADD MSTORE DUP9 DUP6 ADD MLOAD PUSH2 0x1A0 DUP8 ADD MSTORE PUSH2 0x1C0 DUP7 ADD DUP5 SWAP1 MSTORE PUSH2 0x1E0 DUP7 ADD DUP4 SWAP1 MSTORE PUSH2 0x200 DUP7 ADD DUP3 SWAP1 MSTORE PUSH2 0x220 DUP7 ADD DUP2 SWAP1 MSTORE DUP10 MLOAD PUSH2 0x240 DUP8 ADD MSTORE SWAP4 DUP10 ADD MLOAD PUSH2 0x260 DUP7 ADD MSTORE PUSH2 0x280 DUP6 ADD SWAP3 SWAP1 SWAP3 MSTORE PUSH2 0x2A0 DUP5 ADD MSTORE PUSH2 0x2C0 DUP4 ADD MSTORE PUSH2 0x2E0 DUP3 ADD MSTORE PUSH2 0x478 PUSH2 0x4DC JUMP JUMPDEST PUSH1 0x0 PUSH1 0x20 DUP3 PUSH2 0x300 DUP6 PUSH1 0x8 GAS STATICCALL SWAP1 POP DUP1 DUP1 ISZERO PUSH2 0x1FA JUMPI POP POP MLOAD PUSH1 0x1 EQ SWAP8 SWAP7 POP POP POP POP POP POP POP JUMP JUMPDEST PUSH1 0x40 MLOAD DUP1 PUSH1 0x40 ADD PUSH1 0x40 MSTORE DUP1 PUSH1 0x2 SWAP1 PUSH1 0x20 DUP3 MUL DUP1 CALLDATASIZE DUP4 CALLDATACOPY POP SWAP2 SWAP3 SWAP2 POP POP JUMP JUMPDEST PUSH1 0x40 MLOAD DUP1 PUSH2 0x300 ADD PUSH1 0x40 MSTORE DUP1 PUSH1 0x18 SWAP1 PUSH1 0x20 DUP3 MUL DUP1 CALLDATASIZE DUP4 CALLDATACOPY POP SWAP2 SWAP3 SWAP2 POP POP JUMP JUMPDEST PUSH1 0x40 MLOAD DUP1 PUSH1 0x20 ADD PUSH1 0x40 MSTORE DUP1 PUSH1 0x1 SWAP1 PUSH1 0x20 DUP3 MUL DUP1 CALLDATASIZE DUP4 CALLDATACOPY POP SWAP2 SWAP3 SWAP2 POP POP JUMP JUMPDEST PUSH1 0x0 DUP1 PUSH1 0x0 DUP1 PUSH2 0x160 DUP6 DUP8 SUB SLT ISZERO PUSH2 0x511 JUMPI PUSH1 0x0 DUP1 REVERT JUMPDEST PUSH2 0x100 DUP6 ADD DUP7 DUP2 GT ISZERO PUSH2 0x523 JUMPI PUSH1 0x0 DUP1 REVERT JUMPDEST SWAP5 SWAP7 SWAP5 CALLDATALOAD SWAP6 POP POP POP PUSH2 0x120 DUP6 ADD CALLDATALOAD SWAP3 PUSH2 0x140 DUP7 ADD CALLDATALOAD SWAP3 POP SWAP1 POP JUMP JUMPDEST PUSH4 0x4E487B71 PUSH1 0xE0 SHL PUSH1 0x0 MSTORE PUSH1 0x41 PUSH1 0x4 MSTORE PUSH1 0x24 PUSH1 0x0 REVERT JUMPDEST PUSH1 0x40 DUP1 MLOAD SWAP1 DUP2 ADD PUSH8 0xFFFFFFFFFFFFFFFF DUP2 GT DUP3 DUP3 LT OR ISZERO PUSH2 0x577 JUMPI PUSH2 0x577 PUSH2 0x53E JUMP JUMPDEST PUSH1 0x40 MSTORE SWAP1 JUMP JUMPDEST PUSH1 0x0 DUP3 PUSH1 0x1F DUP4 ADD SLT PUSH2 0x58E JUMPI PUSH1 0x0 DUP1 REVERT JUMPDEST PUSH2 0x596 PUSH2 0x554 JUMP JUMPDEST DUP1 PUSH1 0x40 DUP5 ADD DUP6 DUP2 GT ISZERO PUSH2 0x5A8 JUMPI PUSH1 0x0 DUP1 REVERT JUMPDEST DUP5 JUMPDEST DUP2 DUP2 LT ISZERO PUSH2 0x5C2 JUMPI DUP1 CALLDATALOAD DUP5 MSTORE PUSH1 0x20 SWAP4 DUP5 ADD SWAP4 ADD PUSH2 0x5AA JUMP JUMPDEST POP SWAP1 SWAP6 SWAP5 POP POP POP POP POP JUMP JUMPDEST PUSH1 0x0 DUP3 PUSH1 0x1F DUP4 ADD SLT PUSH2 0x5DE JUMPI PUSH1 0x0 DUP1 REVERT JUMPDEST DUP2 CALLDATALOAD PUSH1 0x20 PUSH8 0xFFFFFFFFFFFFFFFF DUP1 DUP4 GT ISZERO PUSH2 0x5FB JUMPI PUSH2 0x5FB PUSH2 0x53E JUMP JUMPDEST DUP3 PUSH1 0x5 SHL PUSH1 0x40 MLOAD PUSH1 0x1F NOT PUSH1 0x3F DUP4 ADD AND DUP2 ADD DUP2 DUP2 LT DUP5 DUP3 GT OR ISZERO PUSH2 0x620 JUMPI PUSH2 0x620 PUSH2 0x53E JUMP JUMPDEST PUSH1 0x40 MSTORE SWAP4 DUP5 MSTORE DUP6 DUP2 ADD DUP4 ADD SWAP4 DUP4 DUP2 ADD SWAP3 POP DUP8 DUP6 GT ISZERO PUSH2 0x63E JUMPI PUSH1 0x0 DUP1 REVERT JUMPDEST DUP4 DUP8 ADD SWAP2 POP JUMPDEST DUP5 DUP3 LT ISZERO PUSH2 0x65D JUMPI DUP2 CALLDATALOAD DUP4 MSTORE SWAP2 DUP4 ADD SWAP2 SWAP1 DUP4 ADD SWAP1 PUSH2 0x644 JUMP JUMPDEST SWAP8 SWAP7 POP POP POP POP POP POP POP JUMP JUMPDEST PUSH1 0x0 DUP1 PUSH1 0x0 DUP1 PUSH2 0x120 DUP6 DUP8 SUB SLT ISZERO PUSH2 0x67F JUMPI PUSH1 0x0 DUP1 REVERT JUMPDEST PUSH2 0x689 DUP7 DUP7 PUSH2 0x57D JUMP JUMPDEST SWAP4 POP PUSH1 0x40 DUP7 PUSH1 0x5F DUP8 ADD SLT PUSH2 0x69C JUMPI PUSH1 0x0 DUP1 REVERT JUMPDEST PUSH2 0x6A4 PUSH2 0x554 JUMP JUMPDEST DUP1 PUSH1 0xC0 DUP9 ADD DUP10 DUP2 GT ISZERO PUSH2 0x6B6 JUMPI PUSH1 0x0 DUP1 REVERT JUMPDEST DUP4 DUP10 ADD JUMPDEST DUP2 DUP2 LT ISZERO PUSH2 0x6DB JUMPI PUSH2 0x6CC DUP12 DUP3 PUSH2 0x57D JUMP JUMPDEST DUP5 MSTORE PUSH1 0x20 SWAP1 SWAP4 ADD SWAP3 DUP5 ADD PUSH2 0x6BA JUMP JUMPDEST POP DUP2 SWAP7 POP PUSH2 0x6E9 DUP11 DUP3 PUSH2 0x57D JUMP JUMPDEST SWAP6 POP POP POP POP POP PUSH2 0x100 DUP6 ADD CALLDATALOAD PUSH8 0xFFFFFFFFFFFFFFFF DUP2 GT ISZERO PUSH2 0x70A JUMPI PUSH1 0x0 DUP1 REVERT JUMPDEST PUSH2 0x716 DUP8 DUP3 DUP9 ADD PUSH2 0x5CD JUMP JUMPDEST SWAP2 POP POP SWAP3 SWAP6 SWAP2 SWAP5 POP SWAP3 POP JUMP JUMPDEST PUSH4 0x4E487B71 PUSH1 0xE0 SHL PUSH1 0x0 MSTORE PUSH1 0x32 PUSH1 0x4 MSTORE PUSH1 0x24 PUSH1 0x0 REVERT JUMPDEST PUSH4 0x4E487B71 PUSH1 0xE0 SHL PUSH1 0x0 MSTORE PUSH1 0x11 PUSH1 0x4 MSTORE PUSH1 0x24 PUSH1 0x0 REVERT JUMPDEST DUP1 DUP3 ADD DUP1 DUP3 GT ISZERO PUSH2 0x761 JUMPI PUSH2 0x761 PUSH2 0x738 JUMP JUMPDEST SWAP3 SWAP2 POP POP JUMP JUMPDEST PUSH1 0x0 PUSH1 0x1 DUP3 ADD PUSH2 0x779 JUMPI PUSH2 0x779 PUSH2 0x738 JUMP JUMPDEST POP PUSH1 0x1 ADD SWAP1 JUMP JUMPDEST PUSH1 0x0 DUP3 PUSH2 0x79D JUMPI PUSH4 0x4E487B71 PUSH1 0xE0 SHL PUSH1 0x0 MSTORE PUSH1 0x12 PUSH1 0x4 MSTORE PUSH1 0x24 PUSH1 0x0 REVERT JUMPDEST POP MOD SWAP1 JUMP JUMPDEST DUP2 DUP2 SUB DUP2 DUP2 GT ISZERO PUSH2 0x761 JUMPI PUSH2 0x761 PUSH2 0x738 JUMP INVALID LOG2 PUSH5 0x6970667358 0x22 SLT KECCAK256 RETURNDATASIZE 0xAA 0x5D 0xC LOG1 0xF6 SWAP2 BYTE JUMPDEST NUMBER 0x1F DELEGATECALL RETURNDATACOPY PUSH11 0xD45FA9668F060B93698E3A 0xC1 0xBA 0xB7 0xB4 0x4A 0xEA DELEGATECALL PUSH5 0x736F6C6343 STOP ADDMOD EQ STOP CALLER "
        },
        "methodIdentifiers": {
          "verifyKYCProof(uint256[8],uint256,uint256,uint256)": "9c246cab",
          "verifyProof(uint256[2],uint256[2][2],uint256[2],uint256[])": "c32e370e"
        }
      }
    }
  }
}